:200000000C9441000C945E000C945E000C945E000C945E000C945E000C945E000C94AF04B8
:200020000C945E000C945E000C945E000C945E000C945E000C945E000C945E000C945E00D0
:200040000C94CE040C945E000C94D10A0C945E000C945E000C945E000C945E000C945E00BF
:200060000C948D060C945E008E0A8A0A830A930A9A0A9D0AA70AAC0AB10AC40AC00AB90A31
:20008000C90A11241FBECFEFD8E0DEBFCDBF13E0A0E0B1E0E0E5FCE302C005900D92A43169
:2000A000B107D9F714E0A4E1B3E001C01D92AF3CB107E1F70E94ED1A0C94261E0C94000094
:2000C0008BE691E00E94C4080E94D0088091D50380FF02C0409801C0409A81FF02C041989E
:2000E00001C0419A82FF02C0429801C0429A83FF02C043980895439A08958AE991E00E94EE
:20010000C4080E94D0088AB180668AB984B1866084B987B18F6087B908958EE891E00E9450
:20012000C4080E94D00881EF84BD8FEF87BD88BD81E080936E0083E085BD089582E891E0C2
:200140000E94C4080E94D00881EF809380008FEF90E0909389008093880090938B008093BE
:200160008A0083E080938100089586E791E00E94C4080E94D0081092E0031092860382E089
:200180008093B00087E08093B10081E28093B300E0E7F0E08081826080830895809587BDD5
:2001A000609568BD8FEF90E0BC01641B71097093890060938800821B910990938B00809382
:2001C0008A0008958DE191E00E94C4080E94D0082091D9034091D8036091D7038091D60343
:2001E0000C94CE00282FFC0180E09E2F921B961750F49191892798E03CE8869508F4832743
:200200009A95D9F7F2CF0895CF93DF9300D000D000D0CDB7DEB78EE591E00E94C4080E9430
:20022000D0088091C30390E0982F88272091C403822B9F779E838D838091C50390E0982FAD
:2002400088272091C603822B9F779C838B838091C70390E0982F88272091C803822B9F7785
:200260009A83898384EA91E00E94C40866E0CE0105960E94750A89EA91E00E94C40866E09F
:20028000CE0103960E94750A80EB91E00E94C40866E0CE0101960E94750A0E94D00849817A
:2002A0005A816B817C8127E833E08D819E810E94DC0426960FB6F894DEBF0FBECDBFDF9136
:2002C000CF910895CF93DF9300D000D000D0CDB7DEB781E591E00E94C4080E94D0088091F4
:2002E000C90390E0982F88272091CA03822B9F779E838D838091CB0390E0982F8827209164
:20030000CC03822B9F779C838B838091CD0390E0982F88272091CE03822B9F779A838983E9
:2003200084EA91E00E94C40866E0CE0105960E94750A89EA91E00E94C40866E0CE0103969F
:200340000E94750A80EB91E00E94C40866E0CE0101960E94750A0E94D00849815A816B815A
:200360007C8129E933E08D819E810E94DC0426960FB6F894DEBF0FBECDBFDF91CF9108953C
:20038000CF93DF9300D000D000D0CDB7DEB784E491E00E94C4080E94D0088091CF0390E0EC
:2003A000982F88272091D003822B9F779E838D838091D10390E0982F88272091D203822B51
:2003C0009F779C838B838091D30390E0982F88272091D403822B9F779A83898384EA91E0BA
:2003E0000E94C40866E0CE0105960E94750A89EA91E00E94C40866E0CE0103960E94750A9D
:2004000080EB91E00E94C40866E0CE0101960E94750A0E94D00849815A816B817C812BEAA8
:2004200033E08D819E810E94DC0426960FB6F894DEBF0FBECDBFDF91CF910895CF93DF93B6
:2004400000D01F92CDB7DEB78091BE03813079F587EB91E00E94C4080E94D0081B828B819D
:20046000833210F580ED91E00E94C40864E0CE0103960E94750A87ED91E00E94C408EB81EA
:20048000F0E0E354FC4F8081898364E0CE0101960E94750A8EED91E00E94C4080E94D0085E
:2004A0008B818F5F8B83DBCF80EE91E04AC0823009F04CC089EF91E00E94C4080E94D00819
:2004C0008091C30390E0982F88272091C403822B9A83898382E192E00E94C40866E0CE01B9
:2004E00001960E94750A0E94D0088091C50390E0982F88272091C603822B9A83898385E155
:2005000092E00E94C40866E0CE0101960E94750A0E94D0088091C70390E0982F8827209142
:20052000C803822B9A83898388E192E00E94C40866E0CE0101960E94750A0E94D0088BE11E
:2005400092E00E94C4080E94D00882C08330C1F582E392E00E94C4080E94D0088091C903FA
:2005600090E0982F88272091CA03822B9A83898382E192E00E94C40866E0CE0101960E94B0
:20058000750A0E94D0088091CB0390E0982F88272091CC03822B9A83898385E192E00E94CD
:2005A000C40866E0CE0101960E94750A0E94D0088091CD0390E0982F88272091CE03B1CF5F
:2005C0008430C1F58BE492E00E94C4080E94D0088091CF0390E0982F88272091D003822BEE
:2005E0009A83898382E192E00E94C40866E0CE0101960E94750A0E94D0088091D10390E0F3
:20060000982F88272091D203822B9A83898385E192E00E94C40866E0CE0101960E94750AF5
:200620000E94D0088091D30390E0982F88272091D40377CF853019F40E94040109C08630BD
:2006400019F40E94620104C0873011F40E94C0010F900F900F90DF91CF91089580E391E087
:200660000E94C4080E94D00881E08093270408958EE091E00E94C4080E94D00883E2EDEB52
:20068000F3E0DF011D928A95E9F7089580E091E00E94C4080E94D00886E4E1EEF3E0DF01B7
:2006A0001D928A95E9F78EE192E09093E4038093E30380E690E0909312048093110482EE01
:2006C00090E090931404809313049093160480931504909318048093170490931A0480931B
:2006E000190408954F925F926F927F928F929F92AF92BF92CF92DF92EF92FF920F931F9340
:20070000CF93DF9300D000D0CDB7DEB749835A836B837C83280139019C01442737FD409542
:20072000542F89819A81AB81BC81281B390B4A0B5B0B8C189D08AE08BF08C501B4010E9483
:200740008E1D29813A814B815C81421A530A640A750AA30192010E94E01DC9018C0D9D1D47
:200760000F900F900F900F90DF91CF911F910F91FF90EF90DF90CF90BF90AF909F908F9025
:200780007F906F905F904F9008952F923F924F925F927F928F929F92AF92BF92CF92DF92B5
:2007A000EF92FF920F931F93CF93DF9300D01F92CDB7DEB7FB01219033243A94380E09F450
:2007C00063C082E2821508F461C08F01E22CF12C5701AA0CBB1CD501AF51BC4F5D01C12C12
:2007E000D12C412C512CF701E354FC4FFB83EA83742C92012E0D3F1D233231050CF042C05A
:20080000822D840D898384E692E00E94C40864E0CE0101960E94750AD8018C9189838CE603
:2008200092E00E94C40864E0CE0101960E94750A8EED91E00E94C4080E94D008F80181912E
:200840008F01EA81FB81E40DF51D808345018C0C9D1CD4018D919C91892B51F085E792E091
:200860000E94C4080E94D008D401ED91FC9109957394BFEF4B1A5B0AE2E0CE0ED11C4314B1
:2008800008F4B6CF872D03C08EEF01C08DEF0F900F900F90DF91CF911F910F91FF90EF909B
:2008A000DF90CF90BF90AF909F908F907F905F904F903F902F900895BF92CF92DF92EF92E2
:2008C000FF920F931F93CF93DF931F92CDB7DEB78230B9F5FB01C080B180BB2091F1F2E297
:2008E000FC1588F1D12CEC2CF12CDB1002C08D2D2BC087010D0D111D03321105C4F78D2D5A
:200900008C0D898384E692E00E94C40864E0CE0101960E94750AF801E354FC4F8081898395
:200920008CE692E00E94C40864E0CE0101960E94750A8EED91E00E94C4080E94D008D3945F
:20094000D4CF8EEF01C08DEF0F90DF91CF911F910F91FF90EF90DF90CF90BF9008951F9202
:200960000F920FB60F9211248F939F938091860390E001968370992780938603809186035D
:20098000811103C081E08093E00380E883BD9F918F910F900FBE0F901F9018951F920F92FA
:2009A0000FB60F9211248F9381E883BD8F910F900FBE0F901F9018950F931F93CF93DF9322
:2009C0008B01E9011A821B821C821D82198218829F838E83798768875B874A879C012F5FF6
:2009E0003F4F442737FD4095542F6FEF7FEF8FEF9FE70E94E01D3D872C8798012F5F3F4FD7
:200A0000442737FD4095542F6FEF7FEF8FEF9FE30E94E01D2E873F87488B598BDF91CF9172
:200A20001F910F9108950F931F93CF93DF938B01E9019F838E83798768875B874A879C01B9
:200A40002F5F3F4F442737FD4095542F6FEF7FEF8FEF9FE70E94E01D3D872C8798012F5F76
:200A60003F4F442737FD4095542F6FEF7FEF8FEF9FE30E94E01D2E873F87488B598BDF91E4
:200A8000CF911F910F910895CF92DF92EF92FF92CF93DF93EB01FA019C01442737FD409559
:200AA000542FCB01AA2797FDA095BA2F281B390B4A0B5B0BC280D380E480F580C20ED31EF3
:200AC000E41EF51EC282D382E482F58286859785A089B1898C159D05AE05BF0564F0B095AE
:200AE000A095909581959F4FAF4FBF4FC816D906EA06FB0624F482839383A483B583A68125
:200B0000B7810E94861D6B017C01A085B18522813381448155810E94861D22853385A0815D
:200B2000B181AC1BBD0BD183C083C60ED71EE81EF91E0E945D1DC60ED71EE81EF91EC701AD
:200B4000B60120E034E040E050E00E94E01D213080E838078FEF4807580724F421E030E886
:200B60004FEF5FEFDA01C901811520E89207A105B10524F08FEF9FE7A0E0B0E0DF91CF91B9
:200B8000FF90EF90DF90CF900895FC011282138214821582089510927F03449A459AE9EB37
:200BA000F0E080818E7F808380818D7F80838CE08093B80085E48093BC000895880F80938E
:200BC000BA000895413268F590917F039111FCCF91E090937F039FEF909314031092590302
:200BE000940F90935803880F816080937E0385EE8093BC0080917F038130E1F38091590301
:200C0000841710F4409159032AE533E0FB01D9018A2F821B841718F48D918193F9CF842F66
:200C2000089580E008954132A8F590917F039111FCCF92E090937F039FEF90931403109279
:200C4000590340935803FB016AE573E0DB019A2F961B941718F491919D93F9CF90E0880F3E
:200C6000991F80937E0385EE8093BC00222321F080917F038230E1F3809114038F3F61F030
:200C800080911403803251F080911403803341F483E0089581E0089580E0089582E008952F
:200CA00084E00895613298F420917F03243089F460933603FC0188E393E0DC012A2F281B90
:200CC000261718F421912D93F9CF80E0089581E0089582E0089590937B0380937A030895C9
:200CE00090937D0380937C030895882311F085EC01C085E88093BC00089585ED8093BC002A
:200D00008091BC0084FDFCCF10927F03089585EC8093BC0010927F0308951F920F920FB6E1
:200D20000F9211242F933F934F935F936F937F938F939F93AF93BF93EF93FF938091B9009B
:200D4000887F803609F495C068F5883209F45BC090F4803109F454C038F4882309F4EEC08D
:200D6000883009F44DC0EEC0883109F44CC0803209F45EC0E7C0803409F469C048F4803304
:200D800009F456C0883309F0DDC080931403A1C0803509F450C0883509F45EC0883409F015
:200DA000D1C0CEC0883909F4BFC0A8F4883709F460C038F4883609F45CC0803709F459C08F
:200DC000C1C0883809F4B0C0803909F458C0803809F0B8C054C0803B09F47EC038F4803A7E
:200DE00009F45FC0883A09F477C0ACC0803C09F49FC0883C09F49CC0883B09F482C0A2C0DC
:200E000080917E0311C09091590380915803981708F096C0E091590381E08E0F809359034F
:200E2000F0E0E65AFC4F80818093BB0085EC7DC08093140385C0E091590381E08E0F80938D
:200E400059038091BB00F0E0E65AFC4F8083909159038091580365C0E091590381E08E0F33
:200E6000809359038091BB00F0E0E65AFC4F808367C083E080937F0310921503D7CF809149
:200E80001503803208F050C0E091150381E08E0F809315038091BB00F0E0EA5EFC4F80839C
:200EA000C5CF80911503803230F4E0911503F0E0EA5EFC4F10820E947D066091150370E0A3
:200EC000E0917A03F0917B0386E193E00995109215030E94870636C084E080937F03109233
:200EE000370310923603E0917C03F0917D03099580913603811105C081E08093360310925E
:200F00003803E091370381E08E0F80933703F0E0E85CFC4F80818093BB0090913703809106
:200F20003603981708F482CF85E88093BC000AC085EC8093BC0010927F0304C01092140395
:200F40000E947D06FF91EF91BF91AF919F918F917F916F915F914F913F912F910F900FBEA0
:200F60000F901F901895E0916A04F0916B043097E1F030918503209184033217B0F040E085
:200F8000242F30E02617370754F4DC01A20FB31F5C91D901A65BBB4F5C934F5FF1CF1092FA
:200FA000850360938403CB0109940895E0912804F0912904309729F01092820310928103B1
:200FC00009940895109285031092840310928203109281030C94CB050E94DE0586ED97E058
:200FE0000E94700683EB97E00E946B060C94E207462F613208F040E26AE474E00E94E2050B
:201000001092850380938403089591E0909380038093830310928203109281030895409104
:2010200081038091830321E06AE274E00E9413061092820310928103109280030895CF93C8
:20104000DF931F92CDB7DEB78983809180038823A9F0809181038032B0F4E0918203F0E0BF
:20106000E65DFB4F89818083809182038F5F80938203809182038093810305C061E0CE01B8
:2010800001960E9452060F90DF91CF910895EF92FF921F93CF93DF931F92CDB7DEB72091A0
:2010A0008003222371F0182F7C018E2D811B861780F4F70181917F0169830E941F086981B2
:2010C000F4CF0F90DF91CF911F91FF90EF900C9452060F90DF91CF911F91FF90EF9008955E
:2010E0008091840390918503891B08959091850380918403981760F4E0918503F0E0E65B20
:20110000FB4F8081909185039F5F90938503089580E0089590936B0480936A0408959093C5
:20112000290480932804089510927E0410927F0410926C0481E080936D040895ECE6F4E023
:2011400080E081938F5F8231E1F710927E0410927F0410926C0481E080936D041092C500FB
:2011600082E28093C40082E08093C00086E08093C20088E98093C10008959091C00095FF6D
:20118000FCCF8093C6000895CF93DF93EC018991882319F00E94BD08FACFDF91CF910895E2
:2011A0008AE00C94BD08CF93DF93D82FC8E0D7FF02C081E301C080E30E94BD08DD0FC15059
:2011C000B1F7DF91CF9108951F93CF93DF9300D01F92CDB7DEB710E02AE0882369F0E1E01B
:2011E000F0E0EC0FFD1FE10FF11D622F0E949E1D905D90831F5FF1CF1150E1E0F0E0EC0FF1
:20120000FD1FE10FF11D80810E94BD081111F4CF0F900F900F90DF91CF911F9108950F93CB
:201220001F93CF93DF9300D0CDB7DEB7FE0131969E012D5F3F4F63E475E4A4E4B6E411E409
:2012400002E4982F9F70492F50E04A305105C4F09C3081F030F49A3059F09B3099F4008357
:2012600011C09E3059F040F09F3061F4B0830AC0108308C0608306C0A08304C0708302C095
:20128000905D908382958F703196E217F307C9F68A810E94BD0889810F900F90DF91CF9135
:2012A0001F910F910C94BD086D3049F018F46C3061F008956E3029F06F3029F008950C9461
:2012C000D3080C94E4080C940F090C94BD080895FF920F931F93CF93DF938C01C8E0D0E04F
:2012E00080E8F82EF80180818F2111F081E301C080E30E94BD08F6942197209799F7DF91CD
:20130000CF911F910F91FF9008950F931F93CF93DF93CDB7DEB761970FB6F894DEBF0FBEFD
:20132000CDBF8C0181E1EAEDF2E0DE01119601900D928A95E1F7F801808182958F70E1E00B
:20134000F0E0EC0FFD1FE80FF11D80810E94BD08F80180818F70E1E0F0E0EC0FFD1FE80FA1
:20136000F11D808161960FB6F894DEBF0FBECDBFDF91CF911F910F910C94BD08BF92CF92E9
:20138000DF92EF92FF920F931F93CF93DF93CDB7DEB72B970FB6F894DEBF0FBECDBF20E080
:2013A0003AE0C32ED12CE12CF12CBB24B394B20E01E010E00C0F1D1F020F111DA70196016F
:2013C0000E94BE1D605DF8016083B901CA01611571058105910511F02B2DE7CFBA94E1E04C
:2013E000F0E0EC0FFD1FEB0DF11D80810E94BD08B110F4CF2B960FB6F894DEBF0FBECDBF0C
:20140000DF91CF911F910F91FF90EF90DF90CF90BF9008959F92AF92BF92CF92DF92EF92CE
:20142000FF920F931F93CF93DF93CDB7DEB72B970FB6F894DEBF0FBECDBF97FF0AC090954C
:201440008095709561957F4F8F4F9F4F9924939401C0912CA12C5AE0C52ED12CE12CF12C5F
:20146000BB24B394BA0C01E010E00C0F1D1F0A0D111DA70196010E94E01D605DF80160839C
:20148000B901CA01611571058105910511F0AB2CE7CF8B2D992059F042E0B42EBA0CE1E0EC
:2014A000F0E0EC0FFD1FE80FF11D8DE28083BA94E1E0F0E0EC0FFD1FEB0DF11D80810E942F
:2014C000BD08B110F4CF2B960FB6F894DEBF0FBECDBFDF91CF911F910F91FF90EF90DF901E
:2014E000CF90BF90AF909F900895CF93DF93EC01462F50E04D30510508F050C0FA01EC5CAF
:20150000FF4F0C94FF1D03960E946809CE0102960E946809CE0101960E946809CE01DF91E3
:20152000CF910C9468096881772767FD7095872F972F09C0688170E00CC06881798188276E
:2015400077FD8095982FDF91CF910C940A0A6881798180E090E009C0688179818A819B8131
:20156000F2CF688179818A819B81DF91CF910C94BE0903960E948509CE0102960E94850909
:20158000CE0101960E948509CE01DF91CF910C9485098881DF91CF910C94BD08DF91CF91DA
:2015A00008951F920F920FB60F9211245F936F937F938F939F93AF93BF93EF93FF93E0912E
:2015C0007F048091C600F0E0E459FB4F808380917F0460916D0490E0019670E06E5F7F4F6F
:2015E0000E94AA1D62E170E00E94AA1D80937F0490917F0481E0911180E080937E04FF91C4
:20160000EF91BF91AF919F918F917F916F915F910F900FBE0F901F901895861708F4682FD3
:20162000862F08950C94E207BF92CF92DF92EF92FF920F931F93CF93DF93C82EB62EE42E86
:201640008901D12CF12CDE1440F58C2D0E9405088B2D0E941F080E940F088C2D0E940508B5
:201660006E2D6D19613208F060E28C2D0E94F8070E947008882341F0E801CF0DD11D0E94D7
:2016800076088883F394F4CF0E940F089E2D80E28E1508F490E2D90ED6CF8F2DDF91CF9168
:2016A0001F910F91FF90EF90DF90CF90BF9008959A0141E00C94140BFF920F931F93CF9350
:2016C000DF931F92CDB7DEB7F42E8901AE014F5F5F4F0E94580B61E070E001C0660FFA94BD
:2016E000EAF799819623F80190830F90DF91CF911F910F91FF900895FF920F931F93CF93F8
:20170000DF9300D0CDB7DEB7F42EAE014F5F5F4F2A830E94580B2A818823F1F04F2D50E0AC
:20172000421B51094F5F5F4F61E070E002C0660F771F2A95E2F761507109042E01C0660F0D
:201740000A94EAF72981262330E002C0359527954A95E2F7F80120830F900F90DF91CF915D
:201760001F910F91FF9008953F924F925F926F927F928F929F92AF92BF92CF92DF92EF9201
:20178000FF920F931F93CF93DF93882E462E742E7901042F10E0000F111F942E990C592CFC
:2017A00080E2891510F490E2592EA12CB12C332433948A2D90E08017910794F5882D0E942E
:2017C0000508842D0E941F080E940F08882D0E940508692D882D0E94F807662463940E9456
:2017E00070088823C9F0B714B8F4CB2DD0E0CC0FDD1FCE0DDF1D662029F00E9476081882E7
:20180000898308C0C880D9800E947608C82AD982C882B3946324E3CF0E940F08A50CC9CF1A
:201820008B2DDF91CF911F910F91FF90EF90DF90CF90BF90AF909F908F907F906F905F901B
:201840004F903F9008959A0141E00C94B40BFF920F931F93CF93DF9300D0CDB7DEB7F42E5E
:201860008901AE014F5F5F4F0E94230C61E070E002C0660F771FFA94E2F729813A81622353
:201880007323F801718360830F900F90DF91CF911F910F91FF900895FF920F931F93CF9311
:2018A000DF9300D01F92CDB7DEB7F42EAE014F5F5F4F2B830E94230C2B81882309F14F2DA3
:2018C00050E0421B51094F5F5F4F61E070E002C0660F771F2A95E2F761507109042E02C0B0
:2018E000660F771F0A94E2F729813A816223732302C0769567954A95E2F7F8017183608395
:201900000F900F900F90DF91CF911F910F91FF900895EF92FF920F931F93CF93DF9300D094
:201920001F92CDB7DEB7142F2A833B8369830E9405086981862F0E941F082A81022FE22E40
:201940003B81F32E8E2D801B811730F4F70181917F010E941F08F6CF0E940F0891E08111C4
:2019600090E0892F0F900F900F90DF91CF911F910F91FF90EF900895CF93DF931F92CDB78E
:20198000DEB749839E012F5F3F4F41E00E94890C0F90DF91CF910895FF920F931F93CF9380
:2019A000DF9300D0CDB7DEB7182F062FF42EAE014F5F5F4F2A830E94580B89812A81222377
:2019C00051F021E030E00F2C01C0220F0A94EAF7482F422B09C021E030E001C0220FFA94CB
:2019E000EAF7422F409548234983602F812F0E94BC0C0F900F90DF91CF911F910F91FF90F3
:201A00000895EF92FF920F931F93CF93DF9300D0CDB7DEB7F82EE62E142FAE014F5F5F4F7E
:201A20002A830E94580B2A81882319F1412F50E0421B51094F5F5F4FE1E0F0E002C0EE0F91
:201A4000FF1F2A95E2F73197042E01C0EE0F0A94EAF701C0000F4A95EAF74E2F40958981AD
:201A60004823E0234E2B49836E2D8F2D0E94BC0C01C080E00F900F90DF91CF911F910F9173
:201A8000FF90EF900895AF92BF92DF92EF92FF920F931F93CF93DF931F92CDB7DEB7042F61
:201AA000790169830E9405086981862F0E941F0810E0000F111FD12CAD2CB12CA016B1065A
:201AC0007CF4AA0CBB1CAE0CBF1CF50181810E941F08F50180810E941F08D394D394ECCF6A
:201AE0000E940F0891E0811190E0892F0F90DF91CF911F910F91FF90EF90DF90BF90AF9038
:201B00000895CF93DF9300D0CDB7DEB75A8349839E012F5F3F4F41E00E94430D0F900F90B6
:201B2000DF91CF910895DF92EF92FF920F931F93CF93DF9300D0CDB7DEB7F82EE62ED42E68
:201B40008901AE014F5F5F4F0E94230CE981FA8141E050E002C0440F551FDA94E2F7012BED
:201B600019F04E2B5F2B04C0409550954E235F235A8349836E2D8F2D0E94810D0F900F907A
:201B8000DF91CF911F910F91FF90EF90DF900895DF92EF92FF920F931F93CF93DF9300D090
:201BA0001F92CDB7DEB7F82EE62ED42EAE014F5F5F4F2B830E94230C2B81882359F14D2D7A
:201BC00050E0421B51094F5F5F4FE1E0F0E002C0EE0FFF1F2A95E2F73197042E02C0EE0F03
:201BE000FF1F0A94E2F702C0000F111F4A95E2F7AF014095509529813A81422353230E23BC
:201C00001F23402B512B5A8349836E2D8F2D0E94810D01C080E00F900F900F90DF91CF919D
:201C20001F910F91FF90EF90DF9008958091CE0420EA34E047E061E00E945C0B8091A00413
:201C40000895282F8091CE0447E061E00C94CC0C8091CE0440EA54E069E10E94580B80912C
:201C6000A0040895482F8091CE0469E10C94BC0C0F931F938091CE0400EA14E023E045E0DA
:201C80006AE10E947C0B8091A0041F910F9108950F93082F8091CE0423E045E06AE10E945D
:201CA000010D0F9108950F931F938091CE0400EA14E023E042E06AE10E947C0B8091A00476
:201CC0001F910F9108950F93082F8091CE0423E042E06AE10E94010D0F9108950F931F93AA
:201CE0008091CE0400EA14E022E044E06BE10E947C0B8091A0041F910F9108950F93082F0D
:201D00008091CE0422E044E06BE10E94010D0F9108958091CE0420EA34E047E06CE10E946A
:201D20005C0B8091A0040895282F8091CE0447E06CE10C94CC0C8091CE0420EA34E046E09D
:201D40006CE10E945C0B8091A0040895282F8091CE0446E06CE10C94CC0C8091CE0420EAC9
:201D600034E045E06CE10E945C0B8091A0040895282F8091CE0445E06CE10C94CC0C0F93BC
:201D80001F938091CE0400EA14E022E044E06CE10E947C0B8091A0041F910F9108950F93F0
:201DA000082F8091CE0422E044E06CE10E94010D0F9108950F931F938091CE0400EA14E094
:201DC00023E042E06CE10E947C0B8091A0041F910F9108950F93082F8091CE0423E042E0E5
:201DE0006CE10E94010D0F9108958091CE0440EA54E06DE10E94580B8091A0040895482F4C
:201E00008091CE046DE10C94BC0C8091CE0440EA54E06EE10E94580B8091A0040895482FCB
:201E20008091CE046EE10C94BC0C8091CE0440EA54E06FE10E94580B8091A0040895482FA9
:201E40008091CE046FE10C94BC0C8091CE0440EA54E060E20E94580B8091A0040895482F96
:201E60008091CE0460E20C94BC0C8091CE0440EA54E061E20E94580B8091A0040895482F83
:201E80008091CE0461E20C94BC0C8091CE0440EA54E062E20E94580B8091A0040895482F61
:201EA0008091CE0462E20C94BC0C8091CE0420EA34E047E063E20E945C0B8091A0040895CB
:201EC000282F8091CE0447E063E20C94CC0C8091CE0420EA34E046E063E20E945C0B80915E
:201EE000A0040895282F8091CE0446E063E20C94CC0C8091CE0420EA34E045E063E20E9477
:201F00005C0B8091A0040895282F8091CE0445E063E20C94CC0C8091CE0420EA34E044E0C7
:201F200063E20E945C0B8091A0040895282F8091CE0444E063E20C94CC0C8091CE0420EAF9
:201F400034E043E063E20E945C0B8091A0040895282F8091CE0443E063E20C94CC0C80917F
:201F6000CE0420EA34E042E063E20E945C0B8091A0040895282F8091CE0442E063E20C946E
:201F8000CC0C8091CE0420EA34E041E063E20E945C0B8091A0040895282F8091CE0441E04C
:201FA00063E20C94CC0C8091CE0420EA34E040E063E20E945C0B8091A0040895282F80913B
:201FC000CE0440E063E20C94CC0C8091CE0420EA34E047E064E20E945C0B8091A004089589
:201FE000282F8091CE0447E064E20C94CC0C8091CE0420EA34E046E064E20E945C0B80913B
:20200000A0040895282F8091CE0446E064E20C94CC0C8091CE0420EA34E045E064E20E9453
:202020005C0B8091A0040895282F8091CE0445E064E20C94CC0C8091CE0420EA34E044E0A5
:2020400064E20E945C0B8091A0040895282F8091CE0444E064E20C94CC0C0F931F9380915E
:20206000CE0400EA14E024E043E064E20E947C0B8091A0041F910F9108950F93082F80918E
:20208000CE0424E043E064E20E94010D0F910895843070F49091CE04682F660F680F6B5DBE
:2020A00040EA54E0892F0E94580B8091A004089580E00895462F843048F42091CE04682F37
:2020C000660F680F6B5D822F0C94BC0C0895843070F49091CE04682F660F680F6A5D40EA17
:2020E00054E0892F0E94580B8091A004089580E00895462F843048F42091CE04682F660FAC
:20210000680F6A5D822F0C94BC0C0895843078F49091CE04682F660F680F695D20EA34E051
:2021200047E0892F0E945C0B8091A004089580E00895262F843050F43091CE04682F660F7C
:20214000680F695D47E0832F0C94CC0C0895843078F49091CE04682F660F680F695D20EAEE
:2021600034E046E0892F0E945C0B8091A004089580E00895262F843050F43091CE04682F9E
:20218000660F680F695D46E0832F0C94CC0C0895843078F49091CE04682F660F680F695D44
:2021A00020EA34E045E0892F0E945C0B8091A004089580E00895262F843050F43091CE04EC
:2021C000682F660F680F695D45E0832F0C94CC0C0895843078F49091CE04682F660F680F34
:2021E000695D20EA34E044E0892F0E945C0B8091A004089580E00895262F843050F43091B9
:20220000CE04682F660F680F695D44E0832F0C94CC0C08950F931F93843080F49091CE0449
:20222000682F660F680F695D00EA14E024E043E0892F0E947C0B8091A00401C080E01F91E9
:202240000F9108950F93843068F43091CE04982F990F980F995D062F24E043E0692F832F4A
:202260000E94010D0F9108958091CE0440EA54E061E30E94580B8091A0040895482F80910D
:20228000CE0461E30C94BC0C8091CE0440EA54E062E30E94580B8091A0040895482F80915B
:2022A000CE0462E30C94BC0C482F8091CE0463E30C94BC0C8091CE0420EA34E047E064E328
:2022C0000E945C0B8091A0040895282F8091CE0447E064E30C94CC0C8091CE0420EA34E082
:2022E00046E064E30E945C0B8091A0040895282F8091CE0446E064E30C94CC0C8091CE0414
:2023000020EA34E045E064E30E945C0B8091A0040895282F8091CE0445E064E30C94CC0CBA
:202320000F931F938091CE0400EA14E025E044E064E30E947C0B8091A0041F910F9108954D
:202340000F93082F8091CE0425E044E064E30E94010D0F9108958091CE0440EA54E065E3DB
:202360000E94580B8091A00408958091CE0420EA34E047E066E30E945C0B8091A00408953A
:202380008091CE0420EA34E046E066E30E945C0B8091A00408958091CE0420EA34E045E04C
:2023A00066E30E945C0B8091A00408958091CE0420EA34E044E066E30E945C0B8091A0044D
:2023C00008958091CE0420EA34E043E066E30E945C0B8091A00408958091CE0420EA34E097
:2023E00042E066E30E945C0B8091A00408958091CE0420EA34E041E066E30E945C0B809192
:20240000A00408958091CE0420EA34E040E066E30E945C0B8091A00408958091CE0420EAC9
:2024200034E047E067E30E945C0B8091A0040895282F8091CE0447E067E30C94CC0C809188
:20244000CE0420EA34E046E067E30E945C0B8091A0040895282F8091CE0446E067E30C9477
:20246000CC0C8091CE0420EA34E045E067E30E945C0B8091A0040895282F8091CE0445E05A
:2024800067E30C94CC0C8091CE0420EA34E044E067E30E945C0B8091A0040895282F809148
:2024A000CE0444E067E30C94CC0C8091CE0420EA34E043E067E30E945C0B8091A00408959B
:2024C000282F8091CE0443E067E30C94CC0C8091CE0420EA34E042E067E30E945C0B809156
:2024E000A0040895282F8091CE0442E067E30C94CC0C8091CE0420EA34E041E067E30E946F
:202500005C0B8091A0040895282F8091CE0441E067E30C94CC0C8091CE0420EA34E040E0C4
:2025200067E30E945C0B8091A0040895282F8091CE0440E067E30C94CC0C8091CE0440EACD
:2025400054E068E30E94580B8091A0040895482F8091CE0468E30C94BC0C8091CE0420EAAB
:2025600034E047E068E30E945C0B8091A0040895282F8091CE0447E068E30C94CC0C809145
:20258000CE0420EA34E046E068E30E945C0B8091A0040895282F8091CE0446E068E30C9434
:2025A000CC0C8091CE0420EA34E045E068E30E945C0B8091A0040895282F8091CE0445E018
:2025C00068E30C94CC0C8091CE0420EA34E044E068E30E945C0B8091A0040895282F809105
:2025E000CE0444E068E30C94CC0C8091CE0420EA34E043E068E30E945C0B8091A004089558
:20260000282F8091CE0443E068E30C94CC0C8091CE0420EA34E040E068E30E945C0B809114
:20262000A0040895282F8091CE0440E068E30C94CC0C8091CE0440EA54E06AE30E94580BA9
:202640008091A00408958091CE0420EA34E047E06AE30E945C0B8091A00408958091CE0475
:2026600020EA34E046E06AE30E945C0B8091A00408958091CE0420EA34E045E06AE30E9459
:202680005C0B8091A00408958091CE0420EA34E044E06AE30E945C0B8091A00408958091A3
:2026A000CE0420EA34E043E06AE30E945C0B8091A00408958091CE0420EA34E040E06AE3F1
:2026C0000E945C0B8091A00408958F929F92AF92BF92CF92DF92EF92FF920F931F93CF9321
:2026E000DF93EC016B014A0159018091CE0420EA34E04EE06BE30E94140B8091A00490E007
:20270000982F88272091A104822B998388838091A20490E0982F88272091A304822BF60180
:20272000918380838091A40490E0982F88272091A504822BF401918380838091A80490E0A3
:20274000982F88272091A904822BF501918380838091AA0490E0982F88272091AB04822B39
:20276000F801918380838091AC0490E0982F88272091AD04822BF70191838083DF91CF91B4
:202780001F910F91FF90EF90DF90CF90BF90AF909F908F900895EF92FF920F931F93CF93CC
:2027A000DF93CDB7DEB70E946513DF91CF911F910F91FF90EF900895EF92FF920F931F9343
:2027C000CF93DF93EC018B017A018091CE0420EA34E046E06BE30E94140B2091A00430E096
:2027E000322F22278091A104282B398328838091A20490E0982F88272091A304822BF80124
:20280000918380838091A40490E0982F88272091A504822BF70191838083DF91CF911F916C
:202820000F91FF90EF9008958091CE0420EA34E042E06BE30E94140B8091A00490E0982F2F
:2028400088272091A104822B08958091CE0420EA34E042E06DE30E94140B8091A00490E0D0
:20286000982F88272091A104822B08958091CE0420EA34E042E06FE30E94140B8091A00457
:2028800090E0982F88272091A104822B08958091CE0420EA34E042E061E40E94140B809178
:2028A000A00490E0982F88272091A104822B0895EF92FF920F931F93CF93DF93EC018B013B
:2028C0007A018091CE0420EA34E046E063E40E94140B2091A00430E0322F22278091A10489
:2028E000282B398328838091A20490E0982F88272091A304822BF801918380838091A404B3
:2029000090E0982F88272091A504822BF70191838083DF91CF911F910F91FF90EF900895F0
:202920008091CE0420EA34E042E063E40E94140B8091A00490E0982F88272091A104822BCE
:2029400008958091CE0420EA34E042E065E40E94140B8091A00490E0982F88272091A104BC
:20296000822B08958091CE0420EA34E042E067E40E94140B8091A00490E0982F8827209192
:20298000A104822B08959091CE0469E4680F40EA54E0892F0E94580B8091A0040895909103
:2029A000CE0469E4680F20EA34E042E0892F0E94140B8091A00490E0982F88272091A104D7
:2029C000822B08950F931F939091CE0469E4680F20EA34E044E0892F0E94140B2091A00492
:2029E0006091A104862F90E0A0E0B0E077276627922B2091A304622B0091A20410E0102FD9
:202A0000002720E030E0602B712B822B932B1F910F9108958091CE0440EA54E061E60E94D6
:202A2000580B8091A00408958091CE0420EA34E047E061E60E945C0B8091A0040895809106
:202A4000CE0420EA34E046E061E60E945C0B8091A00408958091CE0420EA34E045E061E651
:202A60000E945C0B8091A00408958091CE0420EA34E044E061E60E945C0B8091A004089534
:202A80008091CE0420EA34E043E061E60E945C0B8091A00408958091CE0420EA34E042E04D
:202AA00061E60E945C0B8091A00408958091CE0420EA34E040E061E60E945C0B8091A0044E
:202AC0000895462F843038F49091CE0463E6680F892F0C94BC0C08958091CE0420EA34E093
:202AE00047E067E60E945C0B8091A0040895282F8091CE0447E067E60C94CC0C482F8530B5
:202B000050F48091CE0420EA34E067E60E945C0B8091A004089580E00895482F262F8091EE
:202B2000CE0467E60C94CC0C8091CE0421E042E068E60C94CC0C8091CE0421E041E068E6DF
:202B40000C94CC0C8091CE0421E040E068E60C94CC0C0F931F938091CE0400EA14E022E01C
:202B600045E069E60E947C0B8091A0041F910F9108950F93082F8091CE0422E045E069E6E4
:202B80000E94010D0F9108950F931F938091CE0400EA14E022E043E069E60E947C0B809185
:202BA000A0041F910F9108950F93082F8091CE0422E043E069E60E94010D0F9108950F93C5
:202BC0001F938091CE0400EA14E022E041E069E60E947C0B8091A0041F910F9108950F93A3
:202BE000082F8091CE0422E041E069E60E94010D0F9108958091CE0420EA34E046E06AE6E5
:202C00000E945C0B8091A0040895282F8091CE0446E06AE60C94CC0C8091CE0420EA34E030
:202C200045E06AE60E945C0B8091A0040895282F8091CE0445E06AE60C94CC0C282F809135
:202C4000CE0444E06AE60C94CC0C8091CE0421E042E06AE60C94CC0C8091CE0421E041E0E3
:202C60006AE60C94CC0C8091CE0421E040E06AE60C94CC0C8091CE0421E047E06BE60C94C4
:202C8000CC0C8091CE0420EA34E046E06BE60E945C0B8091A0040895282F8091CE0446E029
:202CA0006BE60C94CC0C8091CE0420EA34E045E06BE60E945C0B8091A0040895282F809111
:202CC000CE0445E06BE60C94CC0C8091CE0420EA34E043E06BE60E945C0B81E09091A00490
:202CE000911180E008959091CE0421E0811120E043E06BE6892F0C94CC0C0F931F938091A6
:202D0000CE0400EA14E023E042E06BE60E947C0B8091A0041F910F9108950F93082F8091D8
:202D2000CE0423E042E06BE60E94010D0F91089588E68093CE0481E00E948D1680E00E9463
:202D40007E0E80E00E94CF0E80E00C944C160F931F938091CE0400EA14E022E047E06CE616
:202D60000E947C0B8091A0041F910F9108950F93082F8091CE0422E047E06CE60E94010DA1
:202D80000F9108958091CE0420EA34E045E06CE60E945C0B8091A0040895282F8091CE04E9
:202DA00045E06CE60C94CC0C8091CE0420EA34E044E06CE60E945C0B8091A0040895282FFB
:202DC0008091CE0444E06CE60C94CC0C8091CE0420EA34E043E06CE60E945C0B8091A004EE
:202DE0000895282F8091CE0443E06CE60C94CC0C8091CE0420EA34E042E06CE60E945C0B91
:202E00008091A0040895282F8091CE0442E06CE60C94CC0C8091CE0420EA34E041E06CE6C6
:202E20000E945C0B8091A0040895282F8091CE0441E06CE60C94CC0C8091CE0420EA34E011
:202E400040E06CE60E945C0B8091A0040895282F8091CE0440E06CE60C94CC0C8091CE049E
:202E600020EA34E042E062E70E94140B8091A00490E0982F88272091A104822B08958091BC
:202E8000CE0440EA54E064E70E94580B8091A00408959C01462F8091CE0464E70C94140B61
:202EA000482F8091CE0464E70C94BC0C0F931F938091CE0400EA14E026E046E065E70E94D6
:202EC0007C0B8091A0041F910F9108950E94561791E0843309F090E0892F08950F93082FFB
:202EE0008091CE0426E046E065E70E94010D0F9108958091CE0420EA34E040E060E00E9487
:202F00005C0B8091A0040895282F8091CE0440E060E00C94CC0C0F931F938091CE0400EAC5
:202F200014E026E046E060E00E947C0B8091A0041F910F9108950F93082F8091CE0426E0A4
:202F400046E060E00E94010D0F9108950F931F938091CE0400EA14E026E046E061E00E94FA
:202F60007C0B8091A0041F910F9108950F93082F8091CE0426E046E061E00E94010D0F91AF
:202F800008950F931F938091CE0400EA14E026E046E062E00E947C0B8091A0041F910F91E3
:202FA00008950F93082F8091CE0426E046E062E00E94010D0F9108958091CE0440EA54E01C
:202FC00063E00E94580B8091A0040895482F8091CE0463E00C94BC0C8091CE0440EA54E011
:202FE00064E00E94580B8091A0040895482F8091CE0464E00C94BC0C8091CE0440EA54E0EF
:2030000065E00E94580B8091A0040895482F8091CE0465E00C94BC0C8091CE0420EA34E00C
:2030200042E066E00E94140B8091A00490E0982F88272091A104822B0895AC018091CE049C
:2030400066E00C94810D8091CE0420EA34E042E068E00E94140B8091A00490E0982F882735
:203060002091A104822B0895AC018091CE0468E00C94810D8091CE0420EA34E042E06AE03D
:203080000E94140B8091A00490E0982F88272091A104822B0895AC018091CE046AE00C94BA
:2030A000810D8091CE0420EA34E042E063E10E94140B8091A00490E0982F88272091A10469
:2030C000822B0895AC018091CE0463E10C94810D8091CE0420EA34E042E065E10E94140B7A
:2030E0008091A00490E0982F88272091A104822B0895AC018091CE0465E10C94810D809180
:20310000CE0420EA34E042E067E10E94140B8091A00490E0982F88272091A104822B089559
:20312000AC018091CE0467E10C94810D8091CE0420EA34E042E068E30E945C0B8091A0045D
:203140000895282F8091CE0442E068E30C94CC0C8091CE0420EA34E041E068E30E945C0B3D
:203160008091A0040895282F8091CE0441E068E30C94CC0C8091CE0420EA34E045E069E36D
:203180000E945C0B8091A00408958091CE0420EA34E044E069E30E945C0B8091A004089508
:2031A0008091CE0420EA34E043E069E30E945C0B8091A00408958091CE0420EA34E042E021
:2031C00069E30E945C0B8091A00408958091CE0420EA34E041E069E30E945C0B8091A0041C
:2031E00008958091CE0420EA34E040E069E30E945C0B8091A00408958091CE0420EA34E069
:2032000042E06AE30E945C0B8091A00408958091CE0420EA34E041E06AE30E945C0B80915B
:20322000A00408958091CE0420EA34E047E06AE60E945C0B8091A0040895282F8091CE0440
:2032400047E06AE60C94CC0C8091CE0421E043E06AE60C94CC0C982F9F7141119062611123
:2032600090648091CE04492F6DE60C94BC0C482F8091CE046EE60C94BC0C8091CE0440EA21
:2032800054E06FE60E94580B8091A0040895482F8091CE046FE60C94BC0C9F92AF92BF9274
:2032A000CF92DF92EF92FF920F931F93CF93DF937C018B01A42EB22E40E060E08A2D0E948E
:2032C0002B198B2D0E943719C0E0D0E0C12CDD24D394C017D10778F5CE014096081719075B
:2032E00018F4902E9C1A02C0A0E19A2EE92DF0E0B6016B1971096E177F0714F49B2C9194A9
:203300008091CE0497012C0F3D1F492D6FE60E94140BC90DD11DB90CC017D107D0F6B11050
:2033200001C0A39440E060E08A2D0E942B198B2D0E943719CECFDF91CF911F910F91FF90A2
:20334000EF90DF90CF90BF90AF909F9008953F924F925F926F927F928F929F92AF92BF922D
:20336000CF92DF92EF92FF920F931F93CF93DF933C015B01342E122F40E060E0832D0E9453
:203380002B19812F0E943719C0E0D0E090E8C92E94E0D92E412C55245394CA15DB0508F089
:2033A0005CC0CE014096A816B90618F4FA2CFC1A02C080E1F82E2F2D30E0C201811B9109D9
:2033C0008217930714F4F12EF194F301EC0FFD1FEE2051F08C2DD6019A2F981B9F1528F4D8
:2033E00094919D933196F8CF6F018091CE0496014F2D6FE60E94890C8F2C912C011107C0A7
:20340000C80DD91D1F0DCA15DB05D8F0C6CF40E060E0832D0E942B19812F0E9437198091F0
:20342000CE042EEA34E04F2D6FE60E94140BA4016EEA74E0C6010E94191E892B09F380E0FB
:203440000DC0111101C0339440E060E0832D0E942B19812F0E943719A0CF81E0DF91CF91BD
:203460001F910F91FF90EF90DF90CF90BF90AF909F908F907F906F905F904F903F900895FC
:20348000EF920F93EE24E3940E94A7190F91EF9008956F927F928F929F92AF92BF92CF920B
:2034A000DF92EF920F931F93CF93DF936C013B01142FC0E0D0E030E8832E34E0932EC6153D
:2034C000D70580F5F601EC0FFD1FCE0103965C01112399F04491FE013196EC0DFD1D2491A8
:2034E000FE013296EC0DFD1D349131111DC02496F601E80FF91F84910AC040812181328159
:20350000D601A80FB91F311129C024968C91813011F080E031C08091CE0442E368E30E944B
:20352000BC0CCDCF81E028C0333048F4E401A0E0B0E0832F90E0B6016A0D7B1D05C08BEE24
:2035400092E00E94C408E5CFA817B90740F4FB01EA0FFB1FE491E9931196F6CF4D01C32F78
:20356000D0E0E12C01E0BE01C4010E94A719CA0DDB1D8111A4CFCDCFDF91CF911F910F9137
:20358000EF90DF90CF90BF90AF909F908F907F906F90089541E00C94491A8091CE0440EA26
:2035A00054E060E70E94580B8091A0040895482F8091CE0460E70C94BC0C8091CE0440EA23
:2035C00054E061E70E94580B8091A0040895482F8091CE0461E70C94BC0CCF93DF93CDB7B6
:2035E000DEB765970FB6F894DEBF0FBECDBF0E949E080E94120B0E947D000E9438030E944E
:203600004603409A419A429A439A83E883BD0E948D000E949E000E94B50080E883BD0E9438
:2036200004010E9462010E94C00178940E94981684E690E00E9462188EE190E00E947918B9
:2036400082E390E00E9490181F8680917E04882309F46AC085E992E00E94C4080E94D00879
:203660008CEA92E00E94C40880916C048E876CE0CE010E960E94750A0E94D00889EB92E01E
:203680000E94C40880916D048E8764E0CE010E960E94750A0E94D0081D8680916D049D858C
:2036A000981730F588EC92E00E94C40864E0CE010D960E94750A8EED91E00E94C40888EC3D
:2036C00092E00E94C408ED85F0E0E459FB4F82818E8764E0CE010E960E94750A8EED91E065
:2036E0000E94C4080E94D0088D858F5F8D87D5CF80916C04823749F0873771F480916D0412
:203700006EE674E00E94C5030DC080916D046EE674E00E945C0406C08AEC92E00E94C40882
:203720000E94D0080E9494088091E003882309F48CCF1092E0032F852F5F27702F87211194
:2037400002C081E086B92091BF0330E0AFEFBFE70E94651D2FEF30E040E050E00E94E01DFF
:2037600059016A013D8B2C8B2091C003332727FD3095432F532F21583F4F4F4F5F4FA8EB74
:20378000BEE10E947B1D2EEF30E040E050E00E94E01D29018CE5481A8FE0580A2091C103F1
:2037A000332727FD3095432F532F21583F4F4F4F5F4FA8EBBEE10E947B1D2EEF30E040E0C6
:2037C00050E00E94E01D39019CE5691A9FE0790A2091C203332727FD3095432F532F2158B4
:2037E0003F4F4F4F5F4FA8EBBEE10E947B1D2EEF30E040E050E00E94E01D4901ECE58E1AA4
:20380000EFE09E0ACE0101967C018E010D5F1F4F9E012B5F3F4FAE01495F5F4FBE01675FA4
:203820007F4FCE010B960E9465136D817E8147E853E0C2010E944405998B888B6B817C8113
:2038400049E953E0C3010E9444059B8B8A8B69817A814BEA53E0C4010E9444051C018C89EA
:203860009D89863696400CF4B6C041988501222717FD2095322F888999894C01AA2497FC67
:20388000A094BA2C28013901480C591C6A1C7B1C8A899B896C01EE24D7FCE094FE2CB301EA
:2038A000A2014C195D096E097F094C0C5D1C6E1C7F1CC101AA2797FDA095BA2F481A590A9B
:2038C0006A0A7B0A081919092A093B09480159018C189D08AE08BF08881A990AAA0ABB0A0E
:2038E000C00ED11EE21EF31EC80ED91EEA1EFB1E480F591F6A1F7B1F77FF03C040E050E091
:20390000BA01DB01CA014115E0E85E076105710524F08FEF9FE7A0E0B0E077FE03C0412C19
:20392000512C3201411420E852066104710434F044244A940FE7502E612C712CB7FE03C0C8
:20394000812C912C54018114E0E89E06A104B10434F088248A941FE7912EA12CB12CF7FEFB
:2039600003C0C12CD12C7601C11420E8D206E104F10434F0CC24CA94FFE7DF2EE12CF12C05
:20398000692F7A2F8B2F992787FD9A95452C562C672C772467FC7A945527B7FC5A954B2D91
:2039A0003A2D292DCD2CDE2CEF2CFF24E7FCFA9461587F4F8F4F9F4FEFE74E0E511C611C29
:2039C000711C21583F4F4F4F5F4FEFE7CE0ED11CE11CF11C13C0419A2AE030E040E050E046
:2039E0000AE0C02ED12CE12CF12C8AE0482E512C612C712C6AE070E080E090E0E091DA0389
:203A0000E1110BC0429A1AE0C12ED12CE12CF12C6AE070E080E090E001C04298E091DB03A9
:203A2000E1110BC0439A2AE030E040E050E0BAE04B2E512C612C712C01C043984C2D842D02
:203A40000E94CE00809127048111109227048091DF03882309F4F9CD86E60E94BD0883E7BD
:203A60000E94BD088E810E94BD088D810E94BD088C810E94BD088B810E94BD088A810E9460
:203A8000BD0889810E94BD0889890E94BD0888890E94BD088B890E94BD088A890E94BD080A
:203AA000832D0E94BD08822D0E94BD0886E60E94BD0885E60E94BD08C8CD0E94651D332325
:203AC00012F48A1B9B0B0C94761DA29FB001B39FC001A39F700D811D1124911DB29F700D4F
:203AE000811D1124911D08950E94651DB7FF0895821B930B08950E94651DA59F900DB49F01
:203B0000900DA49F800D911D11240895B7FF0C947B1D0E947B1D821B930B0895DB018F93BA
:203B20009F930E947B1DBF91AF91A29F800D911DA39F900DB29F900D11240895991B79E061
:203B400004C0991F961708F0961B881F7A95C9F78095089597FB072E16F4009407D077FDBB
:203B600009D00E94051E07FC05D03EF4909581959F4F0895709561957F4F0895A1E21A2EA6
:203B8000AA1BBB1BFD010DC0AA1FBB1FEE1FFF1FA217B307E407F50720F0A21BB30BE40B1D
:203BA000F50B661F771F881F991F1A9469F760957095809590959B01AC01BD01CF010895D5
:203BC000052E97FB1EF400940E94F71D57FD07D00E94BE1D07FC03D04EF40C94F71D50956B
:203BE0004095309521953F4F4F4F5F4F089590958095709561957F4F8F4F9F4F0895EE0F95
:203C0000FF1F0590F491E02D0994AA1BBB1B51E107C0AA1FBB1FA617B70710F0A61BB70B8D
:203C2000881F991F5A95A9F780959095BC01CD010895FB01DC0104C08D910190801921F43A
:203C400041505040C8F7881B990B0895F894FFCF68616E646C6572735F696E69740072650B
:203C6000675F61727261795F696E69740068616E646C65725F70776D5F75706461746500D9
:203C8000747072795F7570646174655F68616E646C6572007069645F7A5F7570646174653E
:203CA000007069645F795F757064617465007069645F785F757064617465007570646174F9
:203CC000655F4C45440074696D6572325F696E69740074696D6572315F696E6974007469A3
:203CE0006D6572305F696E6974006770696F5F696E69740050203D20002C2049203D20009C
:203D00002C2044203D20003D3D3D3D3D3D205245472056414C554553203D3D3D3D3D3D00AC
:203D20005B416464723A005D5B56616C3A005D003D3D3D3D3D3D3D3D3D3D3D3D3D3D3D3D31
:203D40003D3D3D3D3D3D3D3D003D3D3D205049442050697463682076616C756573203D3D65
:203D60003D00503D00493D00443D003D3D3D205049442076616C75657320656E64203D3D1D
:203D80003D003D3D3D2050494420526F6C6C202076616C756573203D3D3D003D3D3D2050AB
:203DA00049442059617720202076616C756573203D3D3D005B416464723A20002056616CEB
:203DC00075653A200052756E6E696E67207265676973746572207570646174652068616E4F
:203DE000646C6572003D3D3D204672616D65207265636569766564203D3D3D00436F6D6D90
:203E0000616E642020203A20004461746120436F756E7420203A20005B00556E6B6E6F779B
:203E20006E20636F6D6D616E640030313233343536373839414243444546004552524F52E9
:203E40003A2073697A656F6644555041412870726F6742756666657229203C206C656E6788
:043E60007468000082
:00000001FF
